:100000000C942A000C943F000C943F000C943F0089
:100010000C943F000C943F000C943F000C943F0064
:100020000C943F000C943F000C943F000C943F0054
:100030000C943F000C943F000C943F000C943F0044
:100040000C943F000C943F000C943F000C943F0034
:100050000C943F0011241FBECFE5D8E0DEBFCDBF1A
:1000600010E0A0E6B0E0E0EEF5E002C005900D92F1
:10007000A838B107D9F70E9491010C94EE020C94B4
:10008000000041E064E081E00E94D40141E065E0CD
:1000900081E00E94D40141E066E081E00E94D40149
:1000A00041E067E081E00E94D4010E94950208953A
:1000B000662319F0613059F108958330910589F074
:1000C00084309105C9F0029709F049C041E064E02D
:1000D00081E00E942B0240E065E081E00E942B025B
:1000E000089540E064E081E00E942B0241E065E079
:1000F00081E00E942B02089540E064E081E00E94CC
:100100002B0240E065E081E00E942B0208958330DD
:10011000910581F084309105C1F0029701F541E02D
:1001200066E081E00E942B0240E067E081E00E94EF
:100130002B02089540E066E081E00E942B0241E03E
:1001400067E081E00E942B02089540E066E081E0D4
:100150000E942B0240E067E081E00E942B0208959C
:100160000E94A50208950E94B402089581E00E94B1
:10017000230160E082E090E00E94580061E082E0AC
:1001800090E00E94580080E690E00E947E01089571
:1001900081E00E94230160E083E090E00E9458002B
:1001A00061E083E090E00E94580088E690E00E94C1
:1001B0007E01089581E00E94230160E083E090E0E9
:1001C0000E94580061E082E090E00E94580081E7C0
:1001D00090E00E947E01089581E00E94230160E08A
:1001E00082E090E00E94580061E083E090E00E948D
:1001F000580087E790E00E947E01089581E00E9408
:10020000230160E084E090E00E94580061E084E017
:1002100090E00E9458008CE790E00E947E010895D3
:1002200088B3846088BB83EF91E00197F1F700C049
:10023000000088B38B7F88BB83EF91E00197F1F7D3
:1002400000C000000895CF93C82F88B38E7F88BB6D
:100250008BB38F708BBB8BB39C2F907F892B8BBB09
:100260000E9410018BB38F708BBB2BB330E1C39F07
:10027000C0011124822B8BBB0E941001CF910895E5
:1002800088B38D7F88BB80EF8ABB87B3876087BBCD
:1002900088B38B7F88BB83E30E94230182E30E94A3
:1002A000230188E20E9423018EE00E94230181E065
:1002B0000E94230183EF91E00197F1F700C0000055
:1002C0000895CF93C82F88B3816088BB8BB38F709C
:1002D0008BBB8BB39C2F907F892B8BBB0E94100113
:1002E0008BB38F708BBB2BB330E1C39FC001112444
:1002F000822B8BBB0E941001CF9108950F931F9307
:10030000CF938C01C0E003C00E946101CF5FF80170
:10031000EC0FF11D80818111F7CFCF911F910F91CB
:1003200008950E9441000E94B8020E94400140E0EE
:1003300060E083E00E94D4010E94B3002FE986E8C8
:1003400091E0215080409040E1F700C000000E9401
:10035000B3000E94C202863639F486E490E00E941F
:10036000B0000E94B600EACF823639F486E490E00D
:100370000E94B0000E94C800E1CF823739F488E2C1
:1003800090E00E94B0000E94DA00D8CF8C3639F499
:1003900088E290E00E94B0000E94EC00CFCF83374B
:1003A00069F60E94FE00CACF843008F053C068305E
:1003B00008F050C0423008F04DC04130E1F028F064
:1003C000423049F14330B9F108952AB381E090E019
:1003D000062E02C0880F991F0A94E2F780958223A7
:1003E0008ABB8AB350E002C0440F551F6A95E2F7FA
:1003F000482B4ABB089527B381E090E002C0880FE4
:10040000991F6A95E2F7982F9095922397BB97B31F
:10041000892B87BB089524B381E090E002C0880F48
:10042000991F6A95E2F7982F9095922394BB94B305
:10043000892B84BB089521B381E090E002C0880F2E
:10044000991F6A95E2F7982F9095922391BB91B3EB
:10045000892B81BB0895843008F066C0683008F0AD
:1004600063C0423008F060C08130E9F030F0823083
:1004700081F1833009F443C008952BB381E090E00B
:10048000062E02C0880F991F0A94E2F780958223F6
:100490008BBB8BB350E002C0440F551F6A95E2F747
:1004A000482B4BBB089528B381E090E0062E02C094
:1004B000880F991F0A94E2F78095822388BB88B33E
:1004C00050E002C0440F551F6A95E2F7482B48BB25
:1004D000089525B381E090E0062E02C0880F991F91
:1004E0000A94E2F78095822385BB85B350E002C071
:1004F000440F551F6A95E2F7482B45BB089522B378
:1005000081E090E0062E02C0880F991F0A94E2F75E
:100510008095822382BB82B350E002C0440F551FF6
:100520006A95E2F7482B42BB089587B3886087BB82
:1005300083B7886083BF83B7806483BF83B78F7EB0
:1005400083BF83B7806283BF08959FEF980F94366F
:1005500050F42FEF829FC001112464E670E00E94E6
:10056000C60261506CBF089583B7856083BF08954C
:100570008BB18D7F8BB98AB180618AB985E089B9E9
:1005800010BC08955F9BFECF8CB1089597FB072E9A
:1005900016F4009407D077FD09D00E94DA0207FC18
:1005A00005D03EF4909581959F4F08957095619583
:1005B0007F4F0895AA1BBB1B51E107C0AA1FBB1F99
:1005C000A617B70710F0A61BB70B881F991F5A95DF
:1005D000A9F780959095BC01CD010895F894FFCFBF
:1005E000466F7277617264004261636B7761726417
:1005F000005269676874004C65667400434152207C
:0806000053544F5050454400D3
:00000001FF
