:100000000C942A000C943C000C943C000C943C0092
:100010000C943C000C943C000C943C000C943C0070
:100020000C943C000C943C000C943C000C943C0060
:100030000C943C000C943C000C943C000C943C0050
:100040000C943C000C943C000C943C000C943C0040
:100050000C943C0011241FBECFE5D8E0DEBFCDBF1D
:1000600020E0A0E6B0E001C01D92AA36B207E1F799
:100070000E948C000C941E020C9400000E945801F7
:1000800008952FE58AEE90E0215080409040E1F7FE
:1000900000C0000080E00E94680188E690E00E94B5
:1000A000740183ED90E30197F1F700C0000081E057
:1000B0000E94680184E690E00E94740183ED90E361
:1000C0000197F1F700C0000082E00E94680186E617
:1000D00090E00E94740183ED90E30197F1F700C076
:1000E000000083E00E94680182E690E00E947401B3
:1000F00083ED90E30197F1F700C0000084E00E94D7
:10010000680180E690E00E94740183ED90E301971E
:10011000F1F700C0000008950E943E000E940E0208
:1001200061E070E089E190E00E948C010E94410052
:100130008091680090916900813223E0920700F17C
:10014000209164003091650020323340C8F4209142
:100150006600309167002032334090F420916200B5
:10016000309163002032334058F420916000309188
:1001700061002032334020F486E60E941A028EC0CD
:10018000803223E0920700F52091640030916500F1
:1001900020323340C8F4209166003091670020324D
:1001A000334090F42091620030916300203233405C
:1001B00058F420916000309161002132334020F0EA
:1001C00082E60E941A026AC0803223E0920700F59C
:1001D000209164003091650020323340C8F42091B2
:1001E0006600309167002132334090F02091620028
:1001F000309163002032334058F4209160003091F8
:1002000061002032334020F48CE60E941A0246C07E
:10021000803223E0920700F5209164003091650060
:1002200020323340C8F420916600309167002032BC
:10023000334090F4209162003091630021323340CA
:1002400058F020916000309161002032334020F45A
:1002500082E70E941A0222C080329340F8F4809113
:1002600064009091650081329340C0F080916600F7
:10027000909167008032934088F480916200909161
:1002800063008032934050F480916000909161004F
:100290008032934018F483E70E941A024FE38DE006
:1002A00093E0415080409040E1F700C000003ECF15
:1002B00087B1806487B987B1806287B986B187606A
:1002C00086B986B1806886B986B18F7D86B9089572
:1002D000883048F496B1906496B997B1987F97B9F1
:1002E00097B1892B87B90895FC013699FECF24B1C7
:1002F0002295269526952370422F50E05183408306
:1003000095B1292F30E0220F331F220F331F242BEA
:10031000352B318320830895982F96959695969541
:100320008770913021F130F09230F1F1933009F47F
:1003300058C00895613069F44BB321E030E0B90151
:1003400002C0660F771F8A95E2F7CB01842B8BBB27
:1003500008954BB321E030E0B90102C0660F771F6A
:100360008A95E2F7CB01809584238BBB0895613099
:1003700069F448B321E030E0B90102C0660F771F8D
:100380008A95E2F7CB01842B88BB089548B321E01E
:1003900030E0B90102C0660F771F8A95E2F7CB0102
:1003A0008095842388BB0895613069F445B321E0CA
:1003B00030E0B90102C0660F771F8A95E2F7CB01E2
:1003C000842B85BB089545B321E030E0B90102C01C
:1003D000660F771F8A95E2F7CB018095842385BB52
:1003E0000895613069F442B321E030E0B90102C000
:1003F000660F771F8A95E2F7CB01842B82BB0895A5
:1004000042B321E030E0B90102C0660F771F8A9540
:10041000E2F7CB018095842382BB08958BB18D7F59
:100420008BB98AB188608AB98EE880BD85E089B9C8
:1004300010BC08955D9BFECF8CB90895F894FFCF52
:00000001FF
